:020000040000FA
:100000000C94C7080C94EF080C94EF080C94CD24C2
:100010000C94CD240C94CD240C94EF080C94EF0890
:100020000C94EF080C94EF080C94EF080C94EF0874
:100030000C94EF080C94EF080C94EF080C94EF0864
:100040000C9483240C94EF080C9451240C942B24CE
:100050000C94EF080C94EF080C94EF080C94EF0844
:100060000C94EF080C94EF083D3D3D2077726974C5
:100070006553657474696E6773546F466C61736819
:100080002829003D3D3D2072657365745365747485
:10009000696E677328290031202D3E2032003D3DD6
:1000A0003D20726573657453657474696E67732857
:1000B000290041646D696E204D656E752050696E32
:1000C0003A200041646D696E204D656E75206C6F3D
:1000D000636B65643A2000496E76657274656420CE
:1000E000566F6C756D6520427574746F6E733A202F
:1000F00000536C6565702054696D65723A20004C40
:100100006F636B65643A200045513A2000496E697F
:100110007469616C20566F6C756D653A20004D698D
:100120006E696D616C20566F6C756D653A20004D7F
:100130006178696D616C20566F6C756D653A200051
:1001400056657273696F6E3A20003D3D3D206C6FBD
:10015000616453657474696E677346726F6D466C43
:100160006173682829003D3D3D20536C65657054DE
:10017000696D65723A3A6C6F6F702829202D3E20A8
:10018000534C45455021003D3D20536C65657054EE
:10019000696D65723A3A676574416374697665287A
:1001A00029003D3D3D20467265657A6544616E6378
:1001B000653A3A7365744E65787453746F70417420
:1001C0004D696C6C69732829003D3D204672656558
:1001D0007A6544616E63653A3A6C6F6F70282920C6
:1001E0002D3E20465245455A4521003D3D20467250
:1001F00065657A6544616E63653A3A676574416323
:10020000746976652829003D3D204C6F636B6564F9
:100210003A3A68616E646C6550617573652829208F
:100220002D3E204C4F434B454421003D3D204C6F1B
:10023000636B65643A3A68616E646C654E657874A8
:10024000427574746F6E2829202D3E204C4F434B0D
:10025000454421003D3D204C6F636B65643A3A682C
:10026000616E646C6550726576696F757342757402
:10027000746F6E2829202D3E204C4F434B4544215E
:10028000003D3D204C6F636B65643A3A68616E6473
:100290006C65566F6C756D6555702829202D3E2054
:1002A0004C4F434B454421003D3D204C6F636B65F3
:1002B000643A3A68616E646C65566F6C756D65443E
:1002C0006F776E2829202D3E204C4F434B4544210B
:1002D000003D3D204C6F636B65643A3A68616E6423
:1002E0006C65524649442829202D3E204C4F434BF3
:1002F000454421003D3D20546F64646C65724D6F30
:1003000064653A3A68616E646C655061757365281E
:1003100029202D3E204C4F434B454421003D3D209C
:10032000546F64646C65724D6F64653A3A68616ECF
:10033000646C654E657874427574746F6E282920FC
:100340002D3E204C4F434B454421003D3D20546FF2
:1003500064646C65724D6F64653A3A68616E646C92
:100360006550726576696F7573427574746F6E2827
:1003700029202D3E204C4F434B454421003D3D203C
:10038000546F64646C65724D6F64653A3A68616E6F
:10039000646C65566F6C756D6555702829202D3E0F
:1003A000204C4F434B454421003D3D20546F646435
:1003B0006C65724D6F64653A3A68616E646C65563F
:1003C0006F6C756D65446F776E2829202D3E204C2B
:1003D0004F434B454421003D3D20546F64646C65A0
:1003E000724D6F64653A3A67657441637469766506
:1003F0002829003D3D204B696E6465726761726417
:10040000656E4D6F64653A3A68616E646C654E6501
:1004100078742829202D3E204E455854003D3D201B
:100420004B696E64657267617264656E4D6F646579
:100430003A3A68616E646C654E657874427574749E
:100440006F6E2829202D3E204C4F434B4544210000
:100450003D3D204B696E64657267617264656E4DE7
:100460006F64653A3A68616E646C6550726576696E
:100470006F7573427574746F6E2829202D3E204C61
:100480004F434B454421003D3D204B696E646572EE
:1004900067617264656E4D6F64653A3A68616E6457
:1004A0006C65524649442829202D3E20717565759A
:1004B000656421003D3D204B696E64657267617221
:1004C00064656E4D6F64653A3A676574416374693B
:1004D00076652829003D3D20526570656174536939
:1004E0006E676C654D6F6469666965723A3A6861FA
:1004F0006E646C654E6578742829202D3E20524527
:10050000504541542043555252454E542054524177
:10051000434B003D3D2052657065617453696E67C1
:100520006C654D6F6469666965723A3A67657441D6
:10053000637469766528290048C3B672627563687A
:10054000204D6F6475732069737420616B746976D4
:10055000202D3E206EC3A4636873746572205472AC
:1005600061636B20756E6420466F7274736368728A
:100570006974742073706569636865726E0045699B
:100580006E7A656C204D6F64757320616B7469764B
:10059000202D3E205374726F6D2073706172656EF2
:1005A00000456E646520646572205175657565202F
:1005B0002D3E20626567696E6E6520766F6E2076CF
:1005C0006F726E65005061727479202D3E207765E0
:1005D0006974657220696E20646572205175657555
:1005E000652000416C62756D6D6F64757320697371
:1005F0007420616B746976202D3E206EC3A46368FD
:100600007374657220547261636B3A200048C3B6FC
:1006100072737069656C6D6F647573206973742093
:10062000616B746976202D3E206B65696E656E2066
:100630006E6575656E20547261636B2073706965B9
:100640006C656E003D3D3D206E657874547261634B
:100650006B2829003D3D3D207365747374616E64A1
:10066000627954696D65722829003D3D3D206469B9
:100670007361626C657374616E6462792829003DF0
:100680003D3D20706F776572206F666621003D3DAD
:100690003D20766F6C756D6555702829003D3D3D98
:1006A00020766F6C756D65446F776E28290048C39E
:1006B000B67262756368204D6F64757320697374D8
:1006C00020616B746976202D3E20766F72686572AA
:1006D0006967657220547261636B20756E64204691
:1006E0006F72747363687269747420737065696380
:1006F0006865726E0045696E7A656C204D6F647531
:100700007320616B746976202D3E20547261636B97
:1007100020766F6E20766F726E6520737069656CDF
:10072000656E00416E66616E67206465722051756A
:10073000657565202D3E20737072696E6765206156
:100740006E7320456E646520005061727479204D8F
:100750006F6475732069737420616B746976202DE2
:100760003E207A7572C3BC636B20696E206465722B
:10077000205165756575652000416C62756D6D6F02
:100780006475732069737420616B746976202D3EE3
:1007900020766F7268657269676572205472616352
:1007A0006B003D3D3D2070726576696F75735472C4
:1007B00061636B2829005370657A69616C6D6F64A1
:1007C000757320566F6E2D4269733A2050617274B2
:1007D00079202D3E204F72646E657220696E207AFA
:1007E0007566C3A46C6C696765722052656968653B
:1007F0006E666F6C676520776965646572676562B0
:10080000656E002062697320005370657A69616CBF
:100810006D6F64757320566F6E2D4269733A204177
:100820006C62756D3A20616C6C6520446174656919
:10083000656E207A7769736368656E2053746172A0
:10084000742D20756E6420456E6464617465692042
:10085000737069656C656E00206269732000537067
:10086000657A69616C6D6F64757320566F6E2D4289
:10087000696E3A2048C3B672737069656C202D3E6C
:10088000207A7566C3A46C6C6967656E20547261CA
:10089000636B20776965646572676562656E0048A1
:1008A000C3B67262756368204D6F647573202D3E08
:1008B000206B6F6D706C657474656E204F72646E22
:1008C000657220737069656C656E20756E64204674
:1008D0006F727473636872697474206D65726B658E
:1008E0006E0045696E7A656C204D6F647573202DBE
:1008F0003E2065696E652044617465692061757389
:100900002064656D204F6472646E6572206162734D
:100910007069656C656E005061727479204D6F640A
:100920007573202D3E204F72646E657220696E20B3
:100930007A7566C3A46C6C696765722052656968D4
:10094000656E666F6C67652077696564657267655B
:1009500062656E00416C62756D204D6F6475732029
:100960002D3E206B6F6D706C657474656E204F72D8
:10097000646E657220776965646572676562656E2D
:100980000048C3B672737069656C6D6F64757320CF
:100990002D3E207A7566C3A46C6C6967656E205421
:1009A0007261636B20776965646572676562656E05
:1009B00000204461746569656E20696E204F726421
:1009C0006E657220003D3D20706C6179466F6C64ED
:1009D000657228290053686F7274637574206E6F96
:1009E0007420636F6E6669677572656421003D3DB2
:1009F0003D20706C617953686F7274437574282957
:100A0000004B617274652077697264206E65752091
:100A10006B6F6E66696775726965727421004162F9
:100A2000676562726F6368656E21005265736574F5
:100A3000202D3E20454550524F4D2077697264204D
:100A400067656CC3B67363687400736368726569C5
:100A50006265204B617274652E2E2E0041626765BF
:100A600062726F6368656E2100204B61727465204D
:100A70006175666C6567656E00736368726569624F
:100A800065204B617274652E2E2E0041626765628F
:100A9000726F6368656E21003D3D3D2061646D6944
:100AA0006E4D656E752829003D3D3D20736574755A
:100AB00070436172642829004D49464152455F5791
:100AC000726974652829206661696C65643A200042
:100AD000202E2E2E0057726974696E67206461742F
:100AE0006120696E746F20626C6F636B20005043ED
:100AF000445F41757468656E746963617465282923
:100B0000206661696C65643A200041757468656EA1
:100B10007469636174696E6720554C2E2E2E0041F6
:100B2000757468656E7469636174696E6720616766
:100B300061696E207573696E67206B657920412E3F
:100B40002E2E00556E6B6E6F776E206572726F720F
:100B50000041204D494641524520504943432072AF
:100B60006573706F6E6465642077697468204E41A8
:100B70004B2E00546865204352435F4120646F65EB
:100B800073206E6F74206D617463682E00496E76F9
:100B9000616C696420617267756D656E742E0049C1
:100BA0006E7465726E616C206572726F7220696E10
:100BB0002074686520636F64652E2053686F756CC0
:100BC00064206E6F742068617070656E2E00412025
:100BD000627566666572206973206E6F7420626943
:100BE0006720656E6F7567682E0054696D656F7557
:100BF0007420696E20636F6D6D756E6963617469D1
:100C00006F6E2E00436F6C6C6973696F6E20646544
:100C10007465637465642E004572726F7220696E2C
:100C200020636F6D6D756E69636174696F6E2E0000
:100C3000537563636573732E0000000008000201A2
:100C4000000003040700000000000000004C617574
:100C5000747370726563686572207769726420616D
:100C600075736765736368616C7465742100000057
:100C70000000240027002A005741524E494E473AAF
:100C800020436F6D6D756E69636174696F6E206668
:100C900061696C7572652C20697320746865204DDC
:100CA0004652433532322070726F7065726C792013
:100CB000636F6E6E65637465643F00203D20287528
:100CC0006E6B6E6F776E2900203D20636F756E74BA
:100CD000657266656974206368697000203D2076DE
:100CE000322E3000203D2076312E3000203D2076FF
:100CF000302E3000203D2028636C6F6E6529004641
:100D000069726D776172652056657273696F6E3AAC
:100D1000203078004C617574737072656368657219
:100D200020776972642065696E6765736368616CBA
:100D300074657421005265736574202D3E2045450D
:100D400050524F4D20776972642067656CC3B6734B
:100D5000636874003D3D3D206D6672633532322D0F
:100D60003E2052784761696E5F6D6178203D3D3D60
:100D70002000496E666F726D6174696F6E20616EDE
:100D80006420636F6E747269627574696F6E20613E
:100D9000742068747470733A2F2F746F6E75696E57
:100DA0006F2E64652E0A006372656174656420624B
:100DB000792054686F727374656E20566FC39F20DC
:100DC000616E64206C6963656E73656420756E6422
:100DD000657220474E552F47504C2E00546F6E556C
:100DE000494E4F2056657273696F6E20322E310066
:100DF00020207C5F7C207C5F5F5F7C5F7C5F7C5F12
:100E00005F5F5F5F7C5F5F5F5F5F7C5F7C5F5F5F9B
:100E10007C5F5F5F5F5F7C0A0020207C207C207C01
:100E2000202E207C2020207C20207C20207C2D2037
:100E300020202D7C207C207C207C20207C20207C7D
:100E4000007C5F2020205F7C5F5F5F205F5F5F7CB6
:100E500020207C20207C20202020207C2020207C22
:100E6000207C20202020207C000A205F5F5F5F5FC5
:100E70002020202020202020205F5F5F5F5F205FF8
:100E80005F5F5F5F205F5F5F5F5F205F5F5F5F5FF0
:100E9000003D3D3D2052657065617453696E676C1D
:100EA000654D6F6469666965722829003D3D3D2086
:100EB0004B696E64657267617264656E4D6F6465DF
:100EC0002829003D3D3D20546F64646C65724D6F70
:100ED00064652829003D3D3D204C6F636B656428A7
:100EE00029003D3D3D20467265657A6544616E632B
:100EF000652829003D3D3D20536C65657054696D42
:100F00006572282900556E6B6E6F776E207479704C
:100F1000650053414B20696E646963617465732099
:100F2000554944206973206E6F7420636F6D706C37
:100F30006574652E004D494641524520544E50334C
:100F4000585858004D49464152452044455346693A
:100F50007265004D494641524520506C7573004DF5
:100F6000494641524520556C7472616C69676874DA
:100F7000206F7220556C7472616C696768742043CD
:100F8000004D494641524520344B42004D494641AF
:100F9000524520314B42004D4946415245204D6952
:100FA0006E692C20333230206279746573005049A9
:100FB000434320636F6D706C69616E742077697450
:100FC000682049534F2F494543203138303932206A
:100FD000284E464329005049434320636F6D706C8F
:100FE00069616E7420776974682049534F2F4945B1
:100FF000432031343434332D34006D6F64696669B5
:1010000065722072656D6F766564003A00446174A4
:1010100061206F6E204361726420004D4946415249
:10102000455F526561645F342829206661696C659B
:10103000643A20004D49464152455F526561645F04
:10104000332829206661696C65643A20004D494661
:101050004152455F526561645F32282920666169AB
:101060006C65643A20004D49464152455F526561C6
:10107000645F312829206661696C65643A20004DFF
:1010800049464152455F526561642829206661697D
:101090006C65643A2000202E2E2E00526561646932
:1010A0006E6720646174612066726F6D20626C6F80
:1010B000636B20005043445F41757468656E7469CA
:1010C000636174652829206661696C65643A200053
:1010D00041757468656E7469636174696E67204DEB
:1010E000494641524520554C2E2E2E0041757468BC
:1010F000656E7469636174696E6720436C617373B4
:101100006963207573696E67206B657920412E2EA7
:101110002E005049434320747970653A20004361A2
:101120007264205549443A00203D3D3D003D3D3D1F
:101130002000204F7074696F6E7329003D3D3D2083
:10114000766F6963654D656E75282920280000005B
:1011500000002300260029000000000025002800D0
:101160002B00040404040404040402020202020228
:10117000030303030303010204081020408001025B
:101180000408102001020408102045254A2D1124CE
:101190001FBECFEFD8E0DEBFCDBF12E0A0E0B1E0D0
:1011A000E8EDFFE502C005900D92A834B107D9F72C
:1011B00024E0A8E4B2E001C01D92AD3EB207E1F721
:1011C00018E0C6ECD8E004C02197FE010E94AB2EC7
:1011D000C53CD107C9F70E943C260C94DF2F0C9424
:1011E0000000FC018781882399F04285538564853E
:1011F000758586859785A089B189481B590B6A0B2F
:101200007B0B81E0483E53406105710508F480E0A6
:1012100008958CBD9DBD0895AF92BF92CF92DF928D
:10122000EF92FF920F931F93CF93DF936C017B019B
:101230008B01040F151FEB015E01AE18BF08C0172C
:10124000D10759F06991D601ED91FC910190F0819F
:10125000E02DC6010995892B79F7C501DF91CF9162
:101260001F910F91FF90EF90DF90CF90BF90AF90C4
:101270000895FC01538D448D252F30E0842F90E09C
:10128000821B930B541710F0CF9608950197089581
:10129000FC01918D828D981761F0A28DAE0FBF2F4A
:1012A000B11D5D968C91928D9F5F9F73928F90E0A0
:1012B00008958FEF9FEF0895FC01918D828D98170F
:1012C00031F0828DE80FF11D858D90E008958FEF4C
:1012D0009FEF0895FC01918D228D892F90E0805C15
:1012E0009F4F821B91098F73992708958EED93E08C
:1012F0000E946A0921E0892B09F420E0822F0895D9
:1013000080E090E0892B29F00E94760981110C94ED
:1013100000000895FC01A48DA80FB92FB11DA35A98
:10132000BF4F2C91848D90E001968F739927848F05
:10133000A689B7892C93A089B1898C918370806428
:101340008C93938D848D981306C00288F389E02DC9
:1013500080818F7D80830895EF92FF920F931F937A
:10136000CF93DF93EC0181E0888F9B8D8C8D981358
:101370001AC0E889F989808185FF15C09FB7F89464
:10138000EE89FF896083E889F989808183708064B0
:1013900080839FBF81E090E0DF91CF911F910F91FB
:1013A000FF90EF900895F62E0B8D10E00F5F1F4F0A
:1013B0000F731127E02E8C8D8E110CC00FB607FC19
:1013C000FACFE889F989808185FFF5CFCE010E94A7
:1013D0008A09F1CFEB8DEC0FFD2FF11DE35AFF4F82
:1013E000F0829FB7F8940B8FEA89FB898081806235
:1013F000CFCF0F931F93CF93DF938C01D0E0C0E04A
:10140000F801EC0FFD1F6491662341F08EED93E02F
:101410000E94AC09892B11F02196F2CFCE01DF9109
:10142000CF911F910F910895CF93DF93EC01888D99
:101430008823B9F0AA89BB89E889F9898C9185FD4F
:1014400003C0808186FD0DC00FB607FCF7CF8C91DD
:1014500085FFF2CF808185FFEDCFCE010E948A0902
:10146000E9CFDF91CF910895833081F028F4813066
:1014700099F08230A9F008958730A9F08830C9F03A
:101480008430B1F4809180008F7D03C08091800012
:101490008F7780938000089584B58F7784BD0895F9
:1014A00084B58F7DFBCF8091B0008F778093B000A3
:1014B00008958091B0008F7DF9CFCF93DF93282FCF
:1014C00030E0F901E75CF34F8491F901EA58FE4EF0
:1014D000D491F901EE59FE4EC491CC23A1F08111B3
:1014E0000E94340AEC2FF0E0EE0FFF1FE25BFE4E8D
:1014F000A591B491EC91ED2381E090E009F480E0B6
:10150000DF91CF91089580E090E0FACF1F93CF93C1
:10151000DF93282F30E0F901E75CF34F8491F90164
:10152000EA58FE4ED491F901EE59FE4EC491CC23F7
:10153000A9F0162F81110E94340AEC2FF0E0EE0F73
:10154000FF1FE85AFE4EA591B4918FB7F894EC9125
:10155000111108C0D095DE23DC938FBFDF91CF91AE
:101560001F910895DE2BF8CFCF93DF9390E0FC011D
:10157000EA58FE4E24918E599E4EFC018491882398
:10158000C9F090E0880F991FFC01E259F34FA59133
:10159000B491FC01E85AFE4EC591D49161110DC081
:1015A0009FB7F8948C91209582238C93888128236F
:1015B00028839FBFDF91CF910895623051F49FB788
:1015C000F8943C91822F809583238C93E8812E2B75
:1015D000EFCF8FB7F894EC912E2B2C938FBFEACFDF
:1015E0003FB7F8948091970290919802A091990248
:1015F000B0919A0226B5A89B05C02F3F19F001961D
:10160000A11DB11D3FBFBA2FA92F982F8827BC015C
:10161000CD01620F711D811D911D42E0660F771F84
:10162000881F991F4A95D1F708958F929F92AF9284
:10163000BF92CF92DF92EF92FF924B015C010E942A
:10164000F00A6B017C010E94F00A6C197D098E0979
:101650009F09683E734081059105A8F321E0821A35
:101660009108A108B10888EEC80E83E0D81EE11CDD
:10167000F11C81149104A104B10429F7FF90EF90AB
:10168000DF90CF90BF90AF909F908F9008952FB72D
:10169000F8946091930270919402809195029091D8
:1016A00096022FBF08950F931F930E94470B6093DC
:1016B000E6037093E7038093E8039093E9038EEDCC
:1016C00093E00E945C0997FF1DC00E94470B0091A8
:1016D000E6031091E7032091E8033091E903601BD2
:1016E000710B820B930B0091E2031091E3032091A5
:1016F000E4033091E5036017710782079307F8F25E
:101700008FEF9FEF1F910F9108958F929F92AF924D
:10171000BF92CF92DF92EF92FF920F931F93CF93DE
:10172000DF93EC016A017B0110E000E00E94470BAF
:10173000688779878A879B87E881F9810284F385A6
:10174000E02DCE01099597FF21C00E94470B8884A8
:101750009984AA84BB84681979098A099B098C80B9
:101760009D80AE80BF80681579058A059B0520F3B2
:10177000C801DF91CF911F910F91FF90EF90DF9003
:10178000CF90BF90AF909F908F900895F701819375
:101790007F010F5F1F4FC016D10641F6E9CF2091A0
:1017A0009D0230919E022817390771F490919B0297
:1017B00080919C02981741F0E0919B02F0E0EE5A74
:1017C000FD4F808190E008958FEF9FEF0895089579
:1017D000EF92FF920F931F93CF93DF93DC015C9600
:1017E000ED90FC905D97E114F10479F481E090E0D4
:1017F00013969C938E93129790E080E0DF91CF91A7
:101800001F910F91FF90EF9008955196ED91FC91EB
:10181000529750968C915097982F90950FB75E964F
:101820002C915E97122F127021FD6095F894208103
:10183000112319F1282B2083E7012197F1F728E0E4
:10184000462F50E0308160FF1AC0382B3083E7010B
:101850002197F1F7BA0175956795215089F7112302
:1018600081F08081892380830FBF5C968D919C914C
:101870000197F1F781E090E0C1CF2923DCCF392334
:10188000E5CF9081892BEFCF20919D0230919E0270
:101890002817390771F480919C0220919B0290E0F7
:1018A000805C9F4F821B910960E470E00E94832E50
:1018B000089590E080E0089520919D0230919E026D
:1018C00028173907B9F490919B0280919C029817D0
:1018D00089F0E0919B02F0E0EE5AFD4F808120916B
:1018E0009B0230E02F5F3F4F2F73332720939B02E3
:1018F00090E008958FEF9FEF089590E080E00895C5
:10190000BC016E5F7F4FDC01ED91FC910190F08195
:10191000E02D40E0099591E0811190E0892F089534
:101920008430F1F050F4813091F030F1823091F058
:10193000833099F083E49BE008958630B9F098F005
:101940008730B9F08F3FB1F781E59BE0089588E1DA
:101950009CE0089584E09CE008958AEE9BE0089561
:101960008EEC9BE008958FE99BE008958DE89BE065
:10197000089583E79BE0089580E39CE0089508952F
:101980008EBD00000DB407FEFDCF8EB50895DF9229
:10199000EF92FF920F931F93CF93DF937C01062F5B
:1019A000D42E152F83E590E00E94090960E0F7012D
:1019B00086850E94860A82E10E94C00CCD2DD12F1F
:1019C0000C0F1D2F111DC017D10721F089910E9406
:1019D000C00CF9CF61E0F7018685DF91CF911F91AF
:1019E0000F91FF90EF90DF900C94860A1F93CF9396
:1019F000DF93EC01162F83E590E00E94090960E077
:101A00008E850E94860A812F80680E94C00C80E02B
:101A10000E94C00C182F61E08E850E94860A812FDB
:101A2000DF91CF911F9108950F931F93CF93DF9371
:101A3000EC01062F142F83E590E00E94090960E075
:101A40008E850E94860A802F0E94C00C812F0E94E2
:101A5000C00C61E08E85DF91CF911F910F910C94A6
:101A6000860ACF92DF92EF92FF920F931F93CF934C
:101A7000DF93EC016B01142F790140E062E00E94DA
:101A8000140D44E06AE0CE010E94140D40E864E1C8
:101A9000CE010E94140DA601612FCE010E94C70C39
:101AA00043E062E0CE010E94140D08E813E16AE011
:101AB000CE010E94F60C82FF1BC040E062E0CE0126
:101AC0000E94140D64E4CE010E94F60CF70180839D
:101AD00062E4CE010E94F60CF701818380E0DF9181
:101AE000CF911F910F91FF90EF90DF90CF900895CD
:101AF00001501109E1F683E0F2CF3F924F925F92DD
:101B00006F927F928F929F92AF92BF92CF92DF920D
:101B1000EF92FF920F931F93CF93DF9300D0CDB737
:101B2000DEB73C01162F942E290180E0A114B104E8
:101B300011F0F5018081382C329490EF3922380E63
:101B400040E062E0C3010E94140D4FE768E0C3016A
:101B50000E94140D40E864E1C3010E94140DA2012B
:101B6000602FC3010E94C70C432D6AE1C3010E948C
:101B7000140D412F62E0C3010E94140D1C3051F47A
:101B80006AE1C3010E94F60C482F40686AE1C30174
:101B90000E94140D00ED17E068E0C3010E94F60CEE
:101BA000982F992109F0B3C080FD03C0015011099D
:101BB00099F783E092C0E114F10409F46BC0C114F9
:101BC000D10409F467C064E1C3010E94F60C982EA9
:101BD000F6018081891508F494C090829920C9F19A
:101BE00083E590E00E94090960E0F30186850E9488
:101BF000860A9A9482E90E94C00C882099F00FEF1F
:101C000010E001C0000F8A94EAF782E90E94C00C3C
:101C1000902F9095F701208192238023982B908319
:101C2000882483948701080D111D891440F482E9EA
:101C30000E94C00CF80181938F018394F6CF80E05D
:101C40000E94C00CF801808361E0F30186850E9448
:101C5000860A68E1C3010E94F60C8770A114B104E2
:101C600011F0F501808353FC4EC0E114F10409F436
:101C70004CC0C114D10409F448C09E89992309F4C9
:101C800044C0F6014081413039F4843009F049C044
:101C90008FEF23C080E0E7CF423008F442C08111CB
:101CA00040C042509E012F5F3F4FB701C3010E94C9
:101CB000310D811112C0F6019081E90EF11CF7017E
:101CC00032972081998129132CC0F1E0EF1AF10895
:101CD000F70120819A81291324C00F900F90DF9182
:101CE000CF911F910F91FF90EF90DF90CF90BF9019
:101CF000AF909F908F907F906F905F904F903F90AC
:101D0000089584E0EACF82E0E8CF80E0E6CF6CE09F
:101D1000C3010E94F60C582E837109F44CCF81E068
:101D2000DCCF87E0DACF6F927F928F92AF92BF9233
:101D3000CF92DF92EF92FF920F93CF93DF93CDB7C5
:101D4000DEB764970FB6F894DEBF0FBECDBF3C017F
:101D50008BE189838091D8038A838091D9038B8317
:101D60008091DA038C838091DB038D839E012A5F4F
:101D70003F4F45E0BE016F5F7F4F81EB94E00E94D3
:101D8000310D81111BC01C8A85E08B8B1F92812C29
:101D9000CE0144965C01FE0173966F0143977C016E
:101DA00007E09C0140E36CE081EB94E00E947D0D34
:101DB0009981F30190839A8191830F9064960FB675
:101DC000F894DEBF0FBECDBFDF91CF910F91FF9092
:101DD000EF90DF90CF90BF90AF908F907F906F90FB
:101DE00008958F92AF92BF92CF92DF92EF92FF92BF
:101DF0000F93CF93DF93CDB7DEB72C970FB6F89440
:101E0000DEBF0FBECDBF90E699838A83E8EDF3E095
:101E1000DE01139681918D9383E0EE3DF807D1F7B3
:101E2000E091B304E150FF0BEF54FB4FDE01199634
:101E3000CE010D9621912D93A817B907D9F71F92BE
:101E4000812CB12CA12CD12CC12CF12CE12C0CE03B
:101E50009E012F5F3F4F40E16EE081EB94E00E94D6
:101E60007D0D0F902C960FB6F894DEBF0FBECDBF40
:101E7000DF91CF910F91FF90EF90DF90CF90BF90C7
:101E8000AF908F9008956F927F928F92AF92BF9292
:101E9000CF92DF92EF92FF920F931F93CF93DF9336
:101EA00000D000D0CDB7DEB73C0180E589831A822F
:101EB0009E012D5F3F4F42E0BE016F5F7F4FC30128
:101EC0000E94310D182F811118C01F92812CB12C46
:101ED000A12CD12CC12CF12CE12C04E09E012F5F10
:101EE0003F4F40E36CE0C3010E947D0D0F908330B3
:101EF00021F0182F811101C011E0812F0F900F9058
:101F00000F900F90DF91CF911F910F91FF90EF9065
:101F1000DF90CF90BF90AF908F907F906F9008959B
:101F20008F92AF92BF92CF92DF92EF92FF920F9378
:101F3000CF93DF93FA019081923148F16A01EB016E
:101F400090E3988389839B012E5F3F4F42E081EBB2
:101F500094E00E94310D81110FC081E08F93812C9C
:101F6000B12CA12C7E0104E09E0140E36CE081EBEA
:101F700094E00E947D0D0F90DF91CF910F91FF9023
:101F8000EF90DF90CF90BF90AF908F90089584E056
:101F9000F3CF0F931F93CF93DF938C01D62FC42FD2
:101FA0000E94F60CC0954C2F48236D2FC801DF917D
:101FB000CF911F910F910C94140D48E060E181EBDB
:101FC00094E00C94C90F6F927F928F92AF92BF9260
:101FD000CF92DF92EF92FF920F93CF93DF9300D0D7
:101FE00000D01F92CDB7DEB73C0182E08D8340E088
:101FF00064E2C3010E94140D40E066E2C3010E9446
:10200000140D46E268E4C3010E94140D86E28B833E
:102010008D818230C8F140E86CE1C3010E94C90F94
:1020200087E08C831F92812CCE0104965C0101967F
:102030006C0104977C0101E09E012D5F3F4F40E35E
:102040006CE0C3010E947D0D982F0F90811119C083
:102050008D818230C9F48C81811116C081E00F908E
:102060000F900F900F900F90DF91CF910F91FF90F5
:10207000EF90DF90CF90BF90AF908F907F906F9058
:10208000089581E0923059F380E0E9CF2F923F929A
:102090004F925F926F927F928F929F92AF92BF9278
:1020A000CF92DF92EF92FF920F931F93CF93DF9324
:1020B000CDB7DEB72E970FB6F894DEBF0FBECDBFFB
:1020C00006E0413508F046C14E873B012C0140E84F
:1020D0006CE10E94C90F83E989832E85222329F0B0
:1020E00081E0F3019081953008F480E09924939485
:1020F0001C869C85990F990F990F1E85191B17FD3A
:1021000010E032E0882319F098E89B8333E021E067
:10211000912F977009F420E0912F959595959595BD
:10212000290FD1F094E0811193E0291708F4922F40
:102130002C85E22FF0E03196E60DF71D232F41911B
:10214000A1E0B0E0AC0FBD1FA20FB11D4C932F5FFB
:10215000422F431B491798F38111185F10320CF47A
:1021600084C080E78A838B819C8189279D81892710
:102170009E8189278F839E01285F3F4F47E0BE01E4
:102180006F5F7F4FC2010E94310D082F8111E2C0A5
:102190001A8693E09B871D87FE0137961F0109E091
:1021A0008A84482D4295407F480D6AE1C2010E9411
:1021B000140D1F92CE010A965C01FE013B966F0141
:1021C00071019E012F5F3F4F40E36CE0C2010E940E
:1021D0007D0D082F0F90823009F065C06CE1C201BF
:1021E0000E94F60C85FDB6C08F7109F480E2282F9D
:1021F00030E0412F110F550B421753070CF09EC0D2
:10220000182FE22FE595E595E595EF5F922F9770F2
:1022100081E009F480E0E80F81E090E08C0F9D1FE1
:102220008E0F911DFC01215031092770332781E069
:1022300090E002C0880F991F2A95E2F79C018081E7
:10224000822B80838BCF85E98983FE85FF2331F044
:1022500081E0F3019081983008F04BCF80E049CFC6
:1022600087E98983F6E0FC87F9CF912F97709A87E9
:10227000812F8595859585958E5F282F2295207FC6
:10228000290F2A8301E0911101C000E0080F2224E8
:102290002394312C2C0E3D1E280E311CF9E0F81B26
:1022A000FB871D877DCF811155C010E29D8590323F
:1022B0000CF457CF8B81883809F042C083E093E05B
:1022C0002C85E22FF0E03196E60DF71D980FA1E086
:1022D000B0E0AC0FBD1FA80FB11D2C9121938F5FF3
:1022E0008913F5CF8B858C87833009F04DC08A85A3
:1022F00081114AC09E012D5F3F4F41E0B101C201F3
:102300000E94310D082F811125C09B81F10181812F
:1023100098133CC09C818281981338C0808182FFD1
:1023200012C09394F2E09F1609F48DCF23E0921629
:1023300009F496CF81E0981609F4CDCE05E00AC0E5
:1023400082E094E0BDCFF3018387892D880F980E3A
:1023500093949082802F2E960FB6F894DEBF0FBE16
:10236000CDBFDF91CF911F910F91FF90EF90DF9044
:10237000CF90BF90AF909F908F907F906F905F9025
:102380004F903F902F90089501E0E4CF07E0E2CF17
:10239000FC012781211102C08185089580E0089504
:1023A000CF92DF92EF92FF920F931F93CF93DF9321
:1023B000EC010E94470B6B017C0188810E945D0A41
:1023C0009C018E8191E0811104C0232B21F490E0C7
:1023D00002C0232BE1F74E855F85688979899701D3
:1023E0008601041B150B260B370B49815A816B8123
:1023F0007C81041715072607370778F41986CA86E3
:10240000DB86EC86FD868F81DF91CF911F910F9146
:10241000FF90EF90DF90CF9008958F8188879F8302
:10242000292F28272987981751F3CE86DF86E88A37
:10243000F98AE5CF8FE994E00E94D0118DE894E00D
:102440000E94D0118BE794E00C94D011EF92FF9290
:102450000F931F93CF93DF938C01C0E0FF24F3947D
:1024600082E0E82ED3E0C43050F50E941A128FE9C2
:1024700094E00E94F108811122C08FE994E00E944B
:10248000C811882329F0F801EC0FF11DF082CF5F0D
:102490008DE894E00E94C811882329F0F801EC0F20
:1024A000F11DE082CF5F8BE794E00E94C811882382
:1024B000D1F2F801EC0FF11DD083CF5FD4CF81E0D2
:1024C000DF91CF911F910F91FF90EF90089584E0DD
:1024D0000E945D0A21E0892B09F020E0822F0895F7
:1024E00083E0089580E0089580E008950895FC0158
:1024F00001900020E9F73197AF01481B590BBC014F
:102500008EED93E00C940C0989E092E00C94771224
:10251000CF93DF930E94F909EC010E9484128C0F83
:102520009D1FDF91CF9108958AE696E00E94881260
:10253000109248021092490210924A0210924B02E5
:10254000089583E195E00E94881286E0089584EB67
:1025500094E00E94881285E008950F931F93CF9313
:10256000DF93EC018B0187E894E00E94881289E0F8
:10257000F801DE01129601900D928A95E1F781E053
:102580008B870E946712811107C0E881F98104805E
:10259000F581E02DCE01099581E0DF91CF911F916A
:1025A0000F91089580E594E00E94881281E00895DB
:1025B0008DE194E00E94881281E0089587ED93E018
:1025C0000E94881284E0089589EA93E00E948812AC
:1025D00081E008958DE793E00E94881281E00895DC
:1025E0008BE493E00E94881281E008958DE193E0EE
:1025F0000E94881281E0089584EF92E00E94881280
:1026000081E0089581ED92E00E94881281E00895B2
:1026100088EA92E00E94881281E0089581E892E0C1
:102620000E94881281E0089584E592E00E94881259
:1026300081E008958BE292E00E94881281E0089583
:1026400087E092E00E94881281E008958BEE91E08D
:102650000E94881282E0089587E891E00E94881223
:1026600081E008958F929F92AF92BF920F931F9334
:10267000CF93DF93CDB7DEB7A1970FB6F894DEBF47
:102680000FBECDBF19A2423008F44AE08E010F5DA3
:102690001F4F842E912CB12CA12CA50194010E94D6
:1026A000522EE62FB901CA01EA30F4F4E05DD801F8
:1026B000EE938D01232B242B252B79F790E080E0DE
:1026C000109719F0CD010E947712A1960FB6F894D9
:1026D000DEBF0FBECDBFDF91CF911F910F91BF9095
:1026E000AF909F908F900895E95CE1CF462F682FBF
:1026F00070E090E080E00C943213CF93DF936AE0B7
:1027000070E00E947613EC010E9484128C0F9D1FD2
:10271000DF91CF910895CF93DF93BC0190E080E0EB
:102720004AE00E943213EC010E9484128C0F9D1F1C
:10273000DF91CF910895CF92DF92EF92FF92CF93E6
:10274000DF9397FF1BC06B017C016DE28EED93E080
:102750000E94AC09EC0166277727CB016C197D0933
:102760008E099F094AE00E9432138C0F9D1FDF9152
:10277000CF91FF90EF90DF90CF9008954AE0DF91E6
:10278000CF91FF90EF90DF90CF900C943213CF92C7
:10279000DF92EF92FF9284E596E00E94881280918A
:1027A000B5029091B602A091B702B091B802892B00
:1027B0008A2B8B2B69F10E94470B6B017C012091C6
:1027C000B5023091B6024091B7025091B802A0E62E
:1027D000BAEE0E943F2EC60ED71EE81EF91EC0920A
:1027E0004802D0924902E0924A02F0924B02609174
:1027F00048027091490280914A0290914B024AE04E
:102800000E943213FF90EF90DF90CF900C948412CF
:10281000109248021092490210924A0210924B0202
:10282000E6CFEF92FF920F931F93CF93DF93EC01CC
:102830008C01060F111DC017D10799F07E01888108
:10284000803160F08CE192E00E947712219660E185
:1028500070E0F70180810E947613EDCF8CE092E06A
:10286000F3CFDF91CF911F910F91FF90EF900895DB
:102870000F931F93CF93C82F8B0181FF04C08FE06C
:1028800092E00E947712C0FF04C089E192E00E94AA
:102890007712C3FF04C08EE192E00E947712C80154
:1028A0000E947712CF911F910F910C948412CF93B5
:1028B000DF93EC010E94841285E292E00E9477127D
:1028C000CE01DF91CF910C948B138F92AF92BF9278
:1028D000CF92DF92EF92FF920F93CF93DF93CDB71A
:1028E000DEB764970FB6F894DEBF0FBECDBF062FDC
:1028F000E62EF12CA701BC01CE0101960E94D62F35
:1029000021E030E02C0F3D1F2E0D3F1D402FBE015A
:102910006F5F7F4F81EB94E00E94310D811123C0E6
:1029200082E18C8B1B8A0E5F1F92812CCE01439615
:102930005C0101966C0143977C019C0140E36CE0D3
:1029400081EB94E00E947D0D0F9081110CC08C8969
:102950008130D1F48B898430B9F481E099819A3047
:1029600009F480E0819564960FB6F894DEBF0FBE3F
:10297000CDBFDF91CF910F91FF90EF90DF90CF907F
:10298000BF90AF908F90089581E0EDCF0F931F938C
:10299000CF93DF9300D0CDB7DEB78B0190EA998358
:1029A0008A8362E0CE0101960E946514811104C001
:1029B00060E1C8010E9465140F900F90DF91CF91E4
:1029C0001F910F9108951F93CF93DF93EC01162F62
:1029D0000E940A2E181739F0612FCE01DF91CF9196
:1029E0001F910C94122EDF91CF911F910895CF93D8
:1029F000DF93EC010E948B138091D3039091D40359
:102A0000009751F480915002909151028C179D07CC
:102A100069F4DF91CF910895DC01ED91FC91048080
:102A2000F581E02D0995882369F3F3CFD093510206
:102A3000C09350028091D203882359F384E496E036
:102A40000E948812E091D003F091D10381818130FE
:102A500011F0873031F48DE096E00E9488120E94D8
:102A6000C713E091D003F091D1038181823011F03E
:102A7000883011F56091CE037091CF0380914E02A2
:102A800090914F026817790709F498C06F5F7F4FE4
:102A90007093CF036093CE0380810E945F1783EE13
:102AA00095E00E94F9096091CE037091CF0390E008
:102AB00080E04AE00E943213E091D003F091D1030C
:102AC0008181833011F0893099F5C091CE03D09186
:102AD000CF0380914E0290914F02019620914C02BB
:102AE00030914D02821B930B8C179D0709F469C02E
:102AF00085EC95E00E94F9092196D093CF03C0930D
:102B0000CE03E091CE03F091CF03E253FD4F8081DD
:102B10000E947D13E091CE03F091CF03E253FD4F6D
:102B2000A091D003B091D10360818C910E945F1776
:102B3000E091D003F091D1038181843031F48EE7AC
:102B400095E00E9488120E94C713E091D003F09193
:102B5000D1038181853051F5C091CE03D091CF034F
:102B600080914E0290914F02C817D907A9F1219682
:102B7000D093CF03C093CE0388E395E00E94F90978
:102B8000CE010E948B13E091D003F091D1036091AC
:102B9000CE0380810E945F17E091D003F091D103B2
:102BA00080816091CE0390E00E94E31464EF71E0B5
:102BB00080E090E0DF91CF910C94150B0E94C71339
:102BC0007BCF81EA95E00E94881281E090E09093AB
:102BD000CF038093CE0395CF808161E090E00E9487
:102BE000E3140E94C713E2CFBF92CF92DF92EF921D
:102BF000FF920F931F93CF93DF93CDB7DEB72A9742
:102C00000FB6F894DEBF0FBECDBFD82E8AE0B82E27
:102C10008E010F5F1F4FEE24E394FF24FA94CC241F
:102C2000C394D801EB2D1D92EA95E9F741E050E0FD
:102C3000B8018091C1049091C2040E94850B81303B
:102C400009F068C089818E3789F749E050E0BE01FC
:102C50006E5F7F4F8091C1049091C2040E94850BEA
:102C60008F5F8A3008F468C08A818F3F09F067C09F
:102C70008B81863009F063C08A858F3E09F05FC082
:102C80009C81288539853227232732276D81492F5A
:102C900050E04A5F5F4F640F752F711D4E81640FC6
:102CA000711D4F81460F572F511DB701641B750BC6
:102CB0002617370709F046C02E813F813227232788
:102CC0003227DD2009F441C0D91256C0C9012A9625
:102CD0000FB6F894DEBF0FBECDBFDF91CF911F912D
:102CE0000F91FF90EF90DF90CF90BF900895C901B2
:102CF0000E94F714D11095CF3CC0C092C90460E384
:102D000072E0C9010E943814F5CFC092C90467E38C
:102D100072E0F7CF81E890E00E9457148091C104DF
:102D20009091C204DC01ED91FC910084F185E02DCD
:102D30000995892BF9F61DC082E890E0EDCF83E874
:102D400090E0EACF84E890E0E7CF9F3358F49C33DB
:102D500070F69A33D1F29B3361F4C092C9046EE3EA
:102D600072E0CFCF9F3349F2903419F4C9010E9429
:102D7000571430E020E0AACF9F3348F49C3308F08A
:102D8000B6CF9A3311F29B3309F04BCFE6CF9F3386
:102D900009F4B3CF903409F044CFE8CF8091C10457
:102DA0009091C204DC01ED91FC910084F185E02D4D
:102DB00009950A9724F080E00E94F415EFCF08955A
:102DC0000F931F93CF93DF93CDB7DEB72A970FB63C
:102DD000F894DEBF0FBECDBF96E0FE013596DF0151
:102DE000292F1D922A95E9F74EE749834FEF4A8331
:102DF0009B839FEE9A878C83272F30E07E836F839F
:102E000090E08B5F9E4F4D81840F911D280F391FDD
:102E1000620F732F711D71956195710978876987AC
:102E20000E94470B0091C3041091C4042091C50473
:102E30003091C604AB01BC01401B510B620B730BFC
:102E40008091C7049091C804B0E0A0E048175907EA
:102E50006A077B0748F40E94CE1661E070E080E0CC
:102E600090E00E94150BDCCF82E390E09093C804C1
:102E70008093C7048091C1049091C204DC01ED915C
:102E8000FC910280F381E02D4AE050E0BE016F5FCB
:102E90007F4F09950E94470B6093C3047093C4044D
:102EA0008093C5049093C6042A960FB6F894DEBFAB
:102EB0000FBECDBFDF91CF911F910F910895782F55
:102EC0008FE00C94E016CF93DF938091D303909121
:102ED000D403009749F582EA97E00E948812E091B6
:102EE000D003F091D1038181823051F589E797E0D9
:102EF0000E9488128091CE039091CF0320914C02C2
:102F000030914D028217930729F001979093CF03D8
:102F10008093CE03E091D003F091D1036091CE0372
:102F200080810E945F170EC0DC01ED91FC9102844C
:102F3000F385E02D0995882371F2DF91CF910895F3
:102F40008830A1F2E091D003F091D10381818330E8
:102F500011F0893041F5C091CE03D091CF03C1303B
:102F6000D10509F46CC089E497E00E94F909219722
:102F7000D093CF03C093CE03E091CE03F091CF0363
:102F8000E253FD4F80810E947D13E091CE03F091CA
:102F9000CF03E253FD4FA091D003B091D1036081E4
:102FA0008C910E945F17E091D003F091D103818151
:102FB000843069F485EF96E00E948812E091D00396
:102FC000F091D1036091CE0380810E945F17E09160
:102FD000D003F091D1038181853019F58EEA96E016
:102FE0000E9488128091CE039091CF038130910589
:102FF00029F001979093CF038093CE03E091D00303
:10300000F091D1036091CE0380810E945F17E0911F
:10301000D003F091D10380816091CE0390E00E94B3
:10302000E31468EE73E080E090E00E94150B68EE18
:1030300073E080E090E0DF91CF910C94150B83E278
:1030400097E00E94F90980914E0290914F0290936F
:10305000CF038093CE0390CF85ED94E00E94881239
:1030600062E370E080E090E00E94150B0E9467121E
:10307000811118C0E091D003F091D103918160914A
:10308000CE037091CF038081933011F0993021F4F9
:1030900062537D4FFB0160810E945F1710925102C5
:1030A0001092500281E00895BC0183E10C94E01677
:1030B00070E060E08EE00C94E01670E060E08DE07F
:1030C0000C94E016BC0182E10C94E0168091D303CD
:1030D0009091D4030097C1F48DE996E00E94881284
:1030E0009091B1028091A002981750F470E060E0D6
:1030F00085E00E94E0168091A00281508093A0029A
:103100008091A0020C947D13DC01ED91FC9106846A
:10311000F785E02D09958823F9F208958091D3036E
:103120009091D4030097C1F48EE896E00E94881233
:103130009091B0028091A002891750F470E060E095
:1031400084E00E94E0168091A0028F5F8093A0022D
:103150008091A0020C947D13DC01ED91FC9104841C
:10316000F585E02D09958823F9F20895CF92DF9235
:10317000EF92FF92C0904802D0904902E0904A023C
:10318000F0904B02C114D104E104F104C1F10E949A
:10319000470BC616D706E806F90688F58FE796E0CE
:1031A0000E94881261E087E00E94860A64EF71E065
:1031B00080E090E00E94150B43E068E281EB94E030
:1031C0000E94C90F62E081EB94E00E94F60C482F48
:1031D000406162E081EB94E00E94140D70E060E0D9
:1031E0008AE00E94E01683B7817F846083BFF894F1
:1031F00083B7816083BF889583B78E7F83BFFF903D
:10320000EF90DF90CF900895CF92DF92EF92FF92F0
:103210000E94470B6B017C0128EEC20E23E0D21EF8
:10322000E11CF11C0E94CE160E946712811107C09A
:103230000E94470B6C157D058E059F0598F368EE7F
:1032400073E080E090E00E94150B0E94CE160E9471
:1032500067128111FACFFF90EF90DF90CF90089521
:103260004F925F926F927F929F92AF92BF92CF9256
:10327000DF92EF92FF920F931F93CF93DF936C0136
:10328000CB015A01D22F009711F00E9462188CE3F3
:1032900091E10E94F909B6010D2C000C880B990BE5
:1032A0000E949B1382E391E10E948812CE2D992403
:1032B00093948EED93E00E946A09181619060CF09B
:1032C00069C00E94530BFC0197FD60C08D329105CF
:1032D00021F0C0970A9708F051C0412C512C3201BF
:1032E000F12CE130F105D9F0ED32F10509F44BC0D4
:1032F000CF01C0970A9798F4AAE0B0E0A301920129
:103300000E943F2E2F01FF0F66087708460E571EBA
:10331000681E791E80E3481A5108610871088EED15
:1033200093E00E9448090E94530BFC01C0970A9742
:10333000C0F2E130F105A9F2FF2041F070946094F1
:1033400050944094411C511C611C711CC201892B7A
:1033500009F1C414D504F4F0C42D8C2FDF91CF9162
:103360001F910F91FF90EF90DF90CF90BF90AF90A3
:103370009F907F906F905F904F9008958EED93E0B7
:103380000E9448099ECFFF24F394C9CF412C512CB1
:103390003201DCCF0E941A120E94CE168FE994E00F
:1033A0000E94F108882359F082E293E00E9462189B
:1033B00081E08093D7030E94B618CE2DCECF8FE93F
:1033C00094E00E94C8118823B1F0CC2371F08DE203
:1033D00091E10E94F9096AE070E08C2F0E94761357
:1033E00088E291E10E948812B8CF68EE73E080E035
:1033F00090E00E94150B8DE894E00E94F10888236C
:1034000071F16C2E712C8AE0680E711CC614D70401
:103410000CF43601C62D862D0E947D13C501860D44
:10342000911D0E9462180E9404199092D6038BE7A6
:1034300094E00E94F108882309F444C0CB3008F4DA
:10344000CBE0CA508C2F0E947D13C5018C0F911DBB
:103450000E9462180E9404199092D5032ACF8DE829
:1034600094E00E94C811882311F38091D603811142
:1034700026C06C2E712C8FEF681A780AC614D704F8
:103480000CF43601C62D862D0E947D13C501860DD4
:10349000911D0E946218DD2351F20E94041961E01F
:1034A000862D0115110511F0662D802F0E945F17E2
:1034B00068EE73E080E090E00E94150BB8CF1092A8
:1034C000D603B5CF8BE794E00E94C811882309F496
:1034D000F0CE8091D503811121C0C23008F4C2E042
:1034E000C1508C2F0E947D13C5018C0F911D0E942D
:1034F0006218DD2309F4DDCE0E94041961E08C2FEF
:103500000115110511F06C2F802F0E945F1768EED6
:1035100073E080E090E00E94150BCBCE1092D503B3
:10352000C8CECF93DF93EC018091C1049091C20487
:10353000DC01ED91FC910084F185E02D09951816D0
:10354000190624F480E00E94F415EECFBE018EE44B
:103550000E94E0168EE4DF91CF910C94F415EF9267
:10356000FF920F931F93CF93DF93EC01F12CE12C8B
:1035700010E000E021E050E040E06DE271E083E621
:1035800090E00E9430198883811108C080E0DF91AB
:10359000CF911F910F91FF90EF900895F12CE12CA6
:1035A00010E000E020E046E351E066E371E089E0EE
:1035B00090E00E9430198983882341F3843069F4B4
:1035C000088110E0C8010E94911A21E050E040E01B
:1035D00060E471E00E9430198A838981863019F491
:1035E00018828FEF8983898187508330F0F40881B6
:1035F00010E0C8010E94911AF12CE12C21E050E06A
:1036000040E061E471E00E943019E82E8A8308816D
:1036100010E0C8010E94911AF12C21E050E040E036
:1036200062E471E00E9430198B8381E0B0CFFF9299
:103630000F931F93CF93DF9388E690E00E94881248
:103640000BEA12E0C4E6D0E0F801F1908F01CE0160
:103650000E940A2EF81621F06F2DCE010E94122E24
:103660002196C838D10581F7DF91CF911F910F9135
:10367000FF90089583E890E00E948812EBEAF2E060
:1036800087E493EBA7E3B3E180839183A283B383C1
:1036900082E0848389E1858385E086838FE0878368
:1036A00081E08087118612861386148615868687A8
:1036B0001786138A178A138E178E80A381A382A37D
:1036C00083A30C94171B0F931F93CF93DF938AE46C
:1036D00091E00E9488120BEA12E0C4E6D0E0CE012D
:1036E0000E940A2EF80181938F012196C838D105D6
:1036F000B1F78091AB029091AC02A091AD02B09174
:10370000AE028734934BA743B34111F00E943A1B9A
:10371000C091AF02C130B9F48EE990E00E948812E6
:1037200087E990E00E94881282E08093AF021092B5
:10373000CA02C093CB02C093CC02C093CD02C09307
:10374000CE020E94171B80E491E00E94F90980914B
:10375000AF020E947D138FE291E00E94F9098091EF
:10376000B0020E947D138EE191E00E94F9098091E0
:10377000B1020E947D138DE091E00E94F9098091D1
:10378000B2020E947D1388E091E00E94F9098091C5
:10379000B3020E947D138FEF90E00E94F9096091BF
:1037A000B40270E090E080E00E949B130E948412BB
:1037B00081EF90E00E94F9096091B5027091B60224
:1037C0008091B7029091B8020E949B130E948412CC
:1037D00087ED90E00E94F9096091B90270E090E0F5
:1037E00080E00E949B130E94841283EC90E00E9470
:1037F000F9098091CA020E947D1382EB90E00E9439
:10380000F9096AE070E08091CB020E9476136AE0C9
:1038100070E08091CC020E9476136AE070E08091A3
:10382000CD020E9476138091CE02DF91CF911F913D
:103830000F910C947D13DF92EF92FF920F931F93E1
:10384000CF93DF93CDB7DEB7A9970FB6F894DEBF5D
:103850000FBECDBF09A31AA32BA33CA34DA35EA308
:103860006FA378A789A77E0189E1E80EF11C88E0A3
:10387000F70111928A95E9F783E1898B87E38A8BB7
:1038800083EB8B8B87E48C8B82E08D8B8EA18E8B70
:103890008FA18F8B88A5888F89A5898FE091BE0421
:1038A000EF7710E0E13420F4F0E0E656FE4F1081AF
:1038B0000DEF010F033040F58FE19BE00E9488126D
:1038C00087E00E94F10E8093A102D090A102DD203A
:1038D00041F18EEE9AE00E94F9098D2D0E94900C24
:1038E0000E94881281E991E00E946218A9960FB6A1
:1038F000F894DEBF0FBECDBFDF91CF911F910F9126
:10390000FF90EF90DF9008951630F9F619821A8231
:103910008AE09BE00E948812CE0101960E94930EDD
:10392000D2CF85ED9AE00E94F9096AE070E084E068
:103930000E94761380ED9AE00E94881260E1CE0129
:1039400041960E9411140E948412BE016F5E7F4F47
:1039500084E0033008F454C0163009F055C08E01DD
:103960000B5F1F4F8CE0D82EF8018D2D11928A9598
:10397000E9F784E0FE017196DE01119601900D9247
:103980008A95E1F7BE016F5F7F4F88E00E94C61401
:10399000F8018D2D11928A95E9F784E0FE01759664
:1039A000DE01119601900D928A95E1F7BE016F5FDD
:1039B0007F4F89E00E94C614F8018D2D11928A95DF
:1039C000E9F784E0F701DE01119601900D928A95E6
:1039D000E1F7BE016F5F7F4F8AE00E94C614F801D5
:1039E0001192DA94E9F784E0FE017D96DE011196EA
:1039F00001900D928A95E1F7BE016F5F7F4F8BE0DA
:103A00000E94C6148093A1021091A10280E991E066
:103A1000112359F088EB9AE00E94F909812F0E9446
:103A2000900C0E94881281E991E00E9462180E9425
:103A3000841260ED77E080E090E00E94150B56CF95
:103A40000F931F93CF93DF93CDB7DEB729970FB6B0
:103A5000F894DEBF0FBECDBF0E94581888EA9AE0E6
:103A60000E948812CE0106960E94AF1A882389F020
:103A70000E9458180E9467128111FCCF09811A8197
:103A80002B813C814D815E816F81788589850E9483
:103A90001B1C68EE73E080E090E00E94150B2996F5
:103AA0000FB6F894DEBF0FBECDBFDF91CF911F914F
:103AB0000F9108954F925F926F927F928F929F9293
:103AC000AF92BF92CF92DF92EF92FF920F931F932C
:103AD000CF93DF93CDB7DEB729970FB6F894DEBF4B
:103AE0000FBECDBF182F0E9494120E94581888E96B
:103AF0009AE00E9488121092D203111199C080910D
:103B0000CA02813009F18230B1F58FED93E00E9455
:103B10006218CE0101960E9426128823A9F0909186
:103B2000CB028981981310C09091CC028A8198139E
:103B30000BC09B818091CD02981306C09C8180911F
:103B4000CE02981709F474C029960FB6F894DEBF18
:103B50000FBECDBFDF91CF911F910F91FF90EF90DE
:103B6000DF90CF90BF90AF909F908F907F906F909D
:103B70005F904F900895833009F05AC00E94B22D93
:103B80002AE030E040E050E00E94202E4B015C0132
:103B90007C016B012AE0C20ED11CE11CF11C1C2D22
:103BA0000E94B22D2B013C0180EE93E00E9462182E
:103BB0000E940419C6010E9462180E94B22D22E0E0
:103BC00030E040E050E00E94202E61307105810518
:103BD000910509F071C0C301B20129E030E040E075
:103BE00050E00E94202EDC01CB010196A11DB11DE9
:103BF000B82EC80E0E94041981EE93E00E9462184C
:103C00000E9404198B2D90E00E9462188C2D0E9456
:103C10007D13F12CE12C10E000E020E050E040E0CA
:103C200070E060E08FEF90E00E943019C8128CCFF6
:103C3000F12CE12C10E000E020E044E853E064E8DF
:103C400073E08CE090E00E94301990E0009709F456
:103C50007BCF8130910509F062C080E293E00E9441
:103C600062188FE994E00E94D0118DE894E00E94E0
:103C7000D0118BE794E00E94D0118DE894E00E946F
:103C8000C811811106C08BE794E00E94C8118823F7
:103C900091F18EE19AE00E94F90982E293E00E949C
:103CA000621881EB94E00E94430F0E94DD0F0E9496
:103CB000171B0E94C71348CF31E0C316D104E1049B
:103CC000F10489F00E94B22DA5019401275F3F4FB6
:103CD0004F4F5F4F0E94202E6B017C012FEFC21AC5
:103CE000D20AE20AF20ABC2C1C19C12E0E94041945
:103CF00082EE93E083CF81EB94E00E94E30F882370
:103D000009F4AFCF81EB94E00E94800C882349F244
:103D100081E09AE00E94F9090E94201DC2CF823002
:103D20009105D1F4E091B102F0E0E090B002F12C05
:103D3000EE1AFF0A10E000E020E0AF0162EA73E053
:103D40008EE190E08E1B9F0B0E9430199091B10282
:103D5000890F8093B002ABCF8330910599F4E09046
:103D6000B102F12C8091B00210E000E020E050E0C0
:103D700040E063EA73E08150990B0E943019809310
:103D8000B10295CF8430910511F52091B10230E058
:103D9000E090B202F12CE21AF30A8FEFE81AF80A67
:103DA000A901415051098091B00290E0821B930B10
:103DB00010E000E020E064EA73E001960E94301910
:103DC0009091B1029150890F8093B20270CF8530EB
:103DD0009105C1F4E090B302F12C10E000E020E086
:103DE00048E953E068E973E086E090E00E9430190A
:103DF0008093B302282F2150330BB90187E00E9432
:103E0000E01655CF8630910509F083C087E493EB27
:103E1000A7E3B3E189839A83AB83BC8381E08D837D
:103E20001E8218861986F12CE12C10E000E020E0BB
:103E30004AEC53E06AEC73E086E090E00E943019AF
:103E4000D82E882309F433CF31E083130EC020E04D
:103E500040EC53E060EC73E084E090E00E943019A5
:103E6000823039F1E8F4813009F180E293E00E9478
:103E700062180E941A128DE894E00E94C811811104
:103E800006C08BE794E00E94C8118823B1F08BE84C
:103E90009AE00E94881282E293E00E94621854CE57
:103EA000833049F0843009F78CE301C085E08887CE
:103EB000DCCF8FE0FCCF8EE1FACF81EB94E00E9463
:103EC000E30F8823B1F281EB94E00E94800C8823F9
:103ED00009F4EDCE89E79AE00E948812DF82098119
:103EE0001A812B813C814D815E816D2D788589857C
:103EF0000E941B1C64E670E080E090E00E94150BBD
:103F000081EB94E00E94430F0E94DD0F0E94041990
:103F1000CECE87309105E1F4F12CE12C10E000E0E9
:103F200020E04CEA53E06CEA73E084E090E00E9409
:103F300030198150990B880F991F880F991F86544B
:103F40009D4F0E94AF1A80E991E00E946218AFCEA7
:103F50008830910509F03FC0F12CE12C10E000E021
:103F600020E040EC53E060EC73E085E090E00E94DC
:103F70003019833031F150F48130B1F0823009F0E2
:103F800096CE8FE090E0A0E0B0E012C08430F1F077
:103F9000853009F08CCE1092B5021092B6021092C4
:103FA000B7021092B80283CE85E090E0A0E0B0E0C6
:103FB0008093B5029093B602A093B702B093B80273
:103FC00076CE8EE190E0A0E0B0E0F2CF8CE390E01E
:103FD000A0E0B0E0EDCF8930910509F089C087E419
:103FE00093EBA7E3B3E189839A83AB83BC8381E03E
:103FF0008D8384E08F83F12CE12C10E000E021E040
:1040000050E040E06DE271E083E690E00E943019FC
:10401000C82EA82EB12CC5010E94911A850121E05D
:1040200050E040E061E471E00E943019D82EC501F3
:104030000E94911AED2CF12C21E050E040E062E466
:1040400071E00E943019F82E88EA93E00E9462180D
:104050000E940419FD1408F42ACE8D2D90E00E94D0
:104060006218D8866AE070E08D2D0E94761389E68A
:104070009AE00E9488120E941A128DE894E00E9431
:10408000C811811132C08BE794E00E94C8118111E0
:104090002CC081EB94E00E94E30F882361F381EB55
:1040A00094E00E94800C8823F1F08AE49AE00E9458
:1040B0008812CE8209811A812B813C814D815C2D31
:1040C0006F81788589850E941B1C64E670E080E022
:1040D00090E00E94150B81EB94E00E94430F0E9438
:1040E000DD0F0E940419D394B5CF8CE59AE0D1CEB0
:1040F0008A309105B1F4F12CE12C10E000E020E0D1
:1041000045EA53E065EA73E082E090E00E943019EE
:10411000823021F481E08093B902C9CD1092B902B6
:10412000C6CD8B309105B1F48BE29AE00E948812E3
:10413000F12CE12C60E0C7010E94E3148FEFE81A34
:10414000F80AE11424E0F206A9F70E943A1B87EE70
:1041500093E0FBCE0C9709F0AACDF12CE12C10E0F6
:1041600000E020E044ED53E064ED73E084E090E093
:104170000E94301990E08130910519F41092CA0222
:1041800096CD8230910521F481E08093CA028FCDD3
:1041900083309105C9F48FED93E00E946218CE013F
:1041A00001960E942612882309F481CD89819A8183
:1041B000AB81BC818093CB029093CC02A093CD02C3
:1041C000B093CE0282E0E1CF049709F070CD83E096
:1041D000DCCF8091D3039091D403009789F40E949F
:1041E000B22D20E030E041E050E00E94202ECB01D3
:1041F0000E94F71468EE73E080E090E00C94150BD9
:10420000DC01ED91FC910084F185E02D0995882376
:1042100031F308958F929F92AF92BF92CF92DF9227
:10422000EF92FF92CF93DF93EC01CF80D12C8FEFF1
:10423000C81AD80A0D2C000CEE08FF088E80912CAD
:10424000B12CA12C8C149D04AE04BF048CF4C818AE
:10425000D908EA08FB0841F00E94B22DA701960197
:104260000E94202E6B017C018C0C9D1CAE1CBF1C7F
:1042700082EA91E00E948812C4010E948B130E947E
:10428000470B48EE53E0489D9001499D300D589DE5
:10429000300D1124620F731F811D911D6A837B8372
:1042A0008C839D83DF91CF91FF90EF90DF90CF9033
:1042B000BF90AF909F908F9008950F931F93CF93CF
:1042C000DF93FC014281538164817581452B462B2C
:1042D000472B29F1EC010E94470B0A811B812C819D
:1042E0003D810617170728073907C8F489EC91E0C4
:1042F0000E9488120E946712882351F08DE291E09B
:104300000E94541864EF71E080E090E00E94150B69
:10431000CE01DF91CF911F910F910C940A21DF9173
:10432000CF911F910F910895EF92FF920F931F93DA
:10433000CF93DF9380914E0290914F0260914C0297
:1043400070914D02FC013196E61BF70BA62F20E081
:10435000422F50E04E175F0740F441535D4F3A2F14
:10436000320FEA0138832F5FF3CF8F5F861BE82F70
:10437000F0E0E153FD4F8F3F19F011928F5FFBCFBB
:10438000F12C20914E0230914F022F5F3F4F8091D0
:104390004C0290914D028901081B190BCF2DD0E0E2
:1043A000C017D10798F40E94B22DC153DD4FE880A9
:1043B000980150E040E00E94202EE62FF0E0E1530B
:1043C000FD4F80818883E082F394DBCFDF91CF9132
:1043D0001F910F91FF90EF9008958F929F92AF924F
:1043E000BF92CF92DF92EF92FF9285EC99E00E940C
:1043F00088120E94941281E08093D203109251029D
:1044000010925002E091D003F091D103808190E0AE
:104410000E94911A90934F0280934E0221E030E067
:1044200030934D0220934C02BC0190E080E04AE0C2
:104430000E94321381EB99E00E94F909E091D003C8
:10444000F091D10380810E947D13E091D003F0911F
:10445000D1038181813079F581E899E00E94881249
:10446000E0904E02F0904F028FEFE81AF80A82E0D7
:10447000E816F10408F45AC10E94B22D970150E0E9
:1044800040E021503109410951090E94202EDC01F0
:10449000CB010196A11DB11D9093CF038093CE0354
:1044A0000E948B13E091D003F091D1036091CE0371
:1044B00080810E945F17E091D003F091D103818148
:1044C000823091F484E599E00E94881281E090E0C6
:1044D0009093CF038093CE03E091D003F091D1036A
:1044E00061E080810E945F17E091D003F091D103D9
:1044F00081818330A9F487E199E00E9488120E94AB
:10450000942181E090E09093CF038093CE03E091DB
:10451000D003F091D1036091CF0280810E945F1798
:10452000E091D003F091D1038181843091F482EE47
:1045300098E00E948812E091D003F091D10362814B
:10454000862F90E09093CF038093CE0380810E94CA
:104550005F17E091D003F091D1038181853031F56F
:104560008FE998E00E948812E091D003F091D10386
:10457000F0808F2D90E00E940A2E90E09093CF0360
:104580008093CE03009739F020914E0230914F0274
:104590002817390730F481E090E09093CF0380939F
:1045A000CE036091CE038F2D0E945F17E091D00360
:1045B000F091D1038181873009F051C08EE598E0F8
:1045C0000E948812E091D003F091D1036AE070E07C
:1045D00082810E94761388E598E00E94F909E091B3
:1045E000D003F091D10383810E947D13E091D00329
:1045F000F091D103C380D12CD0924F02C0924E02D1
:104600008FEFC81AD80AF12CE12C8280912CB12CA2
:10461000A12C8C149D04AE04BF048CF4C818D908D6
:10462000EA08FB0841F00E94B22DA70196010E9402
:10463000202E6B017C018C0C9D1CAE1CBF1C90922B
:10464000CF038092CE03C4010E948B13E091D0036C
:10465000F091D1036091CE0380810E945F17E091B9
:10466000D003F091D1038181883061F589E098E031
:104670000E948812E091D003F091D1036AE070E0CB
:1046800082810E94761383E098E00E94F909E0910C
:10469000D003F091D10383810E947D13E091D00378
:1046A000F091D103838190E090934F0280934E026A
:1046B0006281862F90E09093CF038093CE03808118
:1046C0000E945F17E091D003F091D103818189307E
:1046D00091F586EB97E00E948812E091D003F0916B
:1046E000D103828190E090934D0280934C028381AC
:1046F00090E090934F0280934E020E94942181E0BB
:1047000090E09093CF038093CE03E091D003F0919B
:10471000D1036091CF028081FF90EF90DF90CF9026
:10472000BF90AF909F908F900C945F1781E090E0C6
:10473000A0E0B0E0B1CEFF90EF90DF90CF90BF90BF
:10474000AF909F908F900895CF93C82F8EEE99E0F1
:104750000E9488128C2F0E947D1324E0C29FC0010A
:104760001124FC01E555FD4F2785222389F086544D
:104770009D4F9093D1038093D0030E94ED210E941E
:10478000941268EE73E080E090E0CF910C94150BEA
:1047900085ED99E0CF910C9488121F93CF93DF930E
:1047A000EC0183EF93E00E9488121B851123E9F04E
:1047B0001B8689E0FE013296A2EAB2E001900D92DA
:1047C0008A95E1F787EA92E09093D1038093D00332
:1047D0008091A7020E947D13E091D003F091D10354
:1047E00081810E947D130E94ED21812FDF91CF9165
:1047F0001F9108950F931F93CF93DF93FC01428184
:10480000538164817581452B462B472BF9F0EC01D0
:104810000E94470B0A811B812C813D8106171707D7
:104820002807390798F486E691E00E9488120E94D2
:1048300058180E94C7131092D4031092D303CE01CC
:10484000DF91CF911F910F910C944D2FDF91CF915C
:104850001F910F9108951F920F920FB60F9211247E
:104860002F933F934F935F936F937F938F939F9378
:10487000AF93BF93EF93FF938EED93E00E948A096D
:10488000FF91EF91BF91AF919F918F917F916F9128
:104890005F914F913F912F910F900FBE0F901F90FE
:1048A00018951F920F920FB60F9211242F938F938A
:1048B0009F93EF93FF93E091EE03F091EF038081DC
:1048C000E091F403F091F50382FD1BC0908180918B
:1048D000F7038F5F8F732091F803821741F0E09107
:1048E000F703F0E0E252FC4F958F8093F703FF91BE
:1048F000EF919F918F912F910F900FBE0F901F906E
:1049000018958081F4CF1F920F920FB60F92112449
:104910002F933F938F939F93AF93BF938091930275
:1049200090919402A0919502B091960230919202DA
:1049300023E0230F2D3758F50196A11DB11D2093BB
:1049400092028093930290939402A0939502B09365
:1049500096028091970290919802A0919902B0914D
:104960009A020196A11DB11D80939702909398021F
:10497000A0939902B0939A02BF91AF919F918F91AA
:104980003F912F910F900FBE0F901F90189526E822
:10499000230F0296A11DB11DD2CF1F920F920FB609
:1049A0000F9211242F933F934F935F936F937F93B5
:1049B0008F939F93AF93BF93EF93FF93E0919D02EB
:1049C000F0919E02309749F0A685B7858585968D32
:1049D00091FF14C09C918923A1F4FF91EF91BF91A5
:1049E000AF919F918F917F916F915F914F913F9187
:1049F0002F910F900FBE0F901F9018959C918923B7
:104A000061F7A389B4899C918589809589238C93CA
:104A1000868997890197F1F7608D718DA685B78595
:104A2000558538E020E0CB010197F1F7822F90E027
:104A300095958795282F4C91452309F02068315092
:104A400091F7868D81FD209580919C0290E00196E2
:104A50008F73992730919B02381799F0A0919C028F
:104A6000B0E0AE5ABD4F2C9380939C02828D938D03
:104A70000197F1F7A389B4898C919589892B8C933F
:104A8000ACCF868D8160868FF1CF1092E1031092BA
:104A9000E00388EE93E0A0E0B0E08093E20390931F
:104AA000E303A093E403B093E5032FED31E03093EB
:104AB000DF032093DE0325EC30E03093EB032093FB
:104AC000EA0324EC30E03093ED032093EC0320EC78
:104AD00030E03093EF032093EE0321EC30E030938D
:104AE000F1032093F00322EC30E03093F3032093A2
:104AF000F20326EC30E03093F5032093F403109298
:104B0000F7031092F8031092F9031092FA0310922F
:104B1000CD041092CC048093CE049093CF04A09344
:104B2000D004B093D1048BEF91E09093CB048093A9
:104B3000CA041092E1041092E0041092E30410926F
:104B4000E2041092E5041092E4041092E70410923B
:104B5000E6046091E8046E7F6D7F6093E8046695DB
:104B6000617081E0682783E00E94860A61E083E04B
:104B70000E94B40AE9E7F1E1E491E093DA04E5E6A2
:104B8000F1E1E491F0E0EE0FFF1FE85AFE4E85914F
:104B900094919093DC048093DB0460E082E00E94B7
:104BA000B40A8091E80481FD04C061E082E00E94C3
:104BB000860A82E08093D604E8E7F1E1E491E0938D
:104BC000D704E4E6F1E1E491F0E0EE0FFF1FE25BD1
:104BD000FE4E859194919093D9048093D8048AECE9
:104BE00094E09093C2048093C10482E390E0909398
:104BF000C8048093C7041092C90481EF91E0909398
:104C0000B2048093B1048AE08093BF0489E080936A
:104C1000C0048EE080939F0449E150E060E070E0C2
:104C20004093A0045093A1046093A2047093A30442
:104C300081E08093A4048093A5049FE090938D0469
:104C400040938E0450938F0460939004709391046A
:104C5000809392048093930490E190937B0440931B
:104C60007C0450937D0460937E0470937F04809352
:104C70008004809381040895CF93DF93CDB7DEB78E
:104C8000A6970FB6F894DEBF0FBECDBF789484B55B
:104C9000826084BD84B5816084BD85B5826085BD38
:104CA00085B5816085BD80916E00816080936E00C6
:104CB00010928100809181008260809381008091B8
:104CC0008100816080938100809180008160809369
:104CD00080008091B10084608093B1008091B00029
:104CE00081608093B00080917A00846080937A0024
:104CF00080917A00826080937A0080917A0081604E
:104D000080937A0080917A00806880937A00109274
:104D1000C100E091EE03F091EF0382E08083E09127
:104D2000EA03F091EB031082E091EC03F091ED03C4
:104D300080E180831092F603E091F203F091F30397
:104D400086E08083E091F003F091F103808180613F
:104D50008083E091F003F091F1038081886080838B
:104D6000E091F003F091F103808180688083E0910D
:104D7000F003F091F10380818F7D808320E0E7E4F0
:104D8000E0937C0080917A00806480937A00809127
:104D90007A0086FDFCCF8091780090917900482FB1
:104DA000417050E04A01550FAA08BB08322F3F71ED
:104DB00004C0880C991CAA1CBB1C3A95D2F7C501EB
:104DC000B4016C257D258E259F252F5F203809F0A5
:104DD000C5C18C149D04AE04BF0411F00E94012EC5
:104DE00089E69EE00E94881281E49EE00E9488127B
:104DF00089E19EE00E94881280EF9DE00E94881267
:104E00008CED9DE00E94881287EA9DE00E94881246
:104E100082E79DE00E94881261E086E00E94B40A69
:104E200060E086E00E94860A8DE49CE00E94881281
:104E300060E084E00E94B40A0E94631B0E94C713D2
:104E4000E091C104F091C204138E128E118E108E67
:104E5000178A168A8DE991E0958F848F8485863133
:104E600008F03DC02DEB30E0378B268B2BE931E08D
:104E7000318F208F2CE231E0338F228F90916800A8
:104E8000883008F46EC121E08E3008F420E081E023
:104E900001C0880F2A95EAF7892B809368009485D2
:104EA0002DE630E0983050F02BE630E09E3030F0C8
:104EB0002CE630E0963110F030E020E0348B238B8C
:104EC000292F30E0983008F04EC181E001C0880FF2
:104ED0009A95EAF7858B848D958D0197F1F7828DF0
:104EE000938D892B41F140919D0250919E02E417D0
:104EF000F50709F14115510569F0DA0153962D9135
:104F00003C91D9019C91DA0155968C918095892329
:104F1000D9018C93868D8E7F868F10929C02109281
:104F20009B02F0939E02E0939D02A389B4898C9129
:104F30009589892B8C93E091C104F091C20480E1A2
:104F400097E2A0E0B0E084839583A683B7830E94B4
:104F5000470B6093C3047093C4048093C50490937B
:104F6000C60460ED77E080E090E00E94150B609150
:104F7000B2026093A00270E086E00E94E0166091A9
:104F8000B3026150770B87E00E94E0161FB7F894D8
:104F900080919F02811127C0ECE6F1E18491E0E865
:104FA000F1E19491E82FF0E0EE0FFF1FE259F34F8B
:104FB000A591B491EC91E92321F461E08AE00E948B
:104FC000860A61E08AE00E94B40A8CB580618CBDDB
:104FD0008CB580648CBD61E08DE00E94B40A61E014
:104FE0008BE00E94B40A80919F028F5F80939F02A2
:104FF0001FBF61E08091BF040E94B40A61E080910C
:10500000BF040E94860A8091C0048F3F09F4B8C093
:1050100060E00E94B40A8091C0040E945D0A892B5E
:1050200009F0AEC061E08091C0040E94B40A60E063
:105030008091C0040E94860A83E090E00197F1F716
:1050400061E08091C0040E94860A62E370E080E023
:1050500090E00E94150B40E064E281EB94E00E9436
:10506000140D40E066E281EB94E00E94140D46E2EC
:1050700068E481EB94E00E94140D40E864E581EB64
:1050800094E00E94140D49EA66E581EB94E00E94E9
:10509000140D43E068E581EB94E00E94140D48EEA6
:1050A0006AE581EB94E00E94140D40E46AE281EB32
:1050B00094E00E94140D4DE362E281EB94E00E94C3
:1050C000140D68E281EB94E00E94F60C982F937027
:1050D000933039F0482F436068E281EB94E00E94FE
:1050E000140D6CE481EB94E00E94F60C807780371D
:1050F00091F040E76CE481EB94E00E94C90F6CE40E
:1051000081EB94E00E94F60C482F40676CE481EB41
:1051100094E00E94140D84E59DE00E9488126EE6E2
:1051200081EB94E00E94F60C182F8FEF9CE00E9418
:10513000F90960E170E0812F0E9476138CEE9CE00B
:105140001039E9F1A0F588EC9CE01231C1F184EF4F
:105150009CE01838A1F18BEB9CE031C06B017C0125
:105160000FCE84E099CE9E3040F42850310981E082
:1051700001C0880F2A95EAF7ADCE2E503109F7CF3E
:105180004FE062E081EB94E00E94140D13E062E3D3
:1051900070E080E090E00E94150B62E081EB94E00B
:1051A0000E94F60C84FF57CF115089F754CF84EE3C
:1051B0009CE0113921F08CED9CE0123961F60E94DF
:1051C000881211501E3F20F088E79CE00E94881250
:1051D0008FEF8093D8038093D9038093DA03809371
:1051E000DB038093DC038093DD0362E08EE00E94AA
:1051F000B40A62E08FE00E94B40A62E080E10E949B
:10520000B40A61E087E00E94B40A60E087E00E948F
:10521000860A61E086E00E94860A84E19DE00E94A1
:1052200088128EE00E945D0A892B01F58FE00E94B2
:105230005D0A892BD9F480E10E945D0A8C01892BDB
:10524000A9F485E39DE00E948812C8010E940A2EFD
:10525000882321F060E0C8010E94122E0F5F1F4FCB
:105260000115B4E01B0789F70E94631B83E00E94CD
:10527000A423F7EA2F2EF2E03F2EA6E56A2EA1E046
:105280007A2EBEE0AB2EB1E0BB2E16E8812E11E0E7
:10529000912E11E00E94B6180E94CE168091D30381
:1052A0009091D403009739F0DC01ED91FC910190CD
:1052B000F081E02D09950E941A128FE994E00E9476
:1052C000F108082F81110DC08DE894E00E94F108CB
:1052D000811107C08BE794E00E94F108882309F44C
:1052E0005BC08091A604882309F456C08091940481
:1052F000882309F451C080918204882309F44CC0AA
:105300000E9458180E941A128091A6048111FACFA7
:10531000809194048111F6CF809182048111F2CFA3
:105320000E941A1280E00E945A1D81EB94E00E94B4
:10533000800C882309F49BC08EE191E10E94F90959
:105340006091B30484EB94E00E9411140E948412D3
:1053500082E191E10E94F909E091BE04EF77E13426
:1053600008F046C1F0E0E656FE4F108181E89FE06C
:10537000153009F401C108F024C18EEA9FE0123013
:1053800009F4FAC008F0EFC086ED9FE0113009F48F
:10539000F3C085E09FE0F0C08FE994E00E94C8115F
:1053A000811115C0002349F18091D703811125C0D7
:1053B0008091D3039091D403009709F06FC00E94AD
:1053C0006712811176C080E00E94A4238DC0809175
:1053D000D3039091D403009709F03FC08091D70385
:1053E000811109C00E946712882309F44DC00E94F0
:1053F00058180E94C7131092D7038DE894E00E94BA
:10540000F108882309F47AC00E946712882309F4FE
:1054100071C08091B90281116AC00E948E181093E8
:10542000D6038BE794E00E94F108882309F484C036
:105430000E946712882309F47BC08091B902811110
:1054400074C00E9466181093D50381EB94E00E940B
:10545000E30F882309F41ECF68CFDC01ED91FC91A6
:105460000280F381E02D0995882309F4B7CF80E00D
:1054700090E0892B09F40DCF0E947609882309F466
:10548000F8CE0E940000F5CE8091D203882309F463
:10549000B2CF0E945D180E949412ADCFDC01ED9155
:1054A000FC910280F381E02D0995882309F487CFD0
:1054B000DECFE091D003F091D10321818091CE0322
:1054C0009091CF03233011F0293021F482539D4F66
:1054D000DC018C912850223020F49281B12FB91B2D
:1054E0008B0F90E00E9454181093D70386CF0E9430
:1054F000E92095CF81E00E94A42391CF8DE894E02C
:105500000E94C811882309F48CCF8091D6038111A1
:1055100006C08091B902811105C00E94E920109255
:10552000D6037FCF0E948E18FACF0E9463178BCFCD
:1055300082E00E94A42387CF8BE794E00E94C811E9
:10554000882309F482CF8091D503811106C0809110
:10555000B902811105C00E9463171092D50375CF5F
:105560000E946618FACF87E99FE0133029F08CE893
:105570009FE0143009F00DCF0E94881282E18EA3C3
:105580000DEF010F0330B0F58CEE90E10E94881210
:1055900087E00E94F10E8093A1025090A102552055
:1055A000B1F184EB90E10E94F909852D0E94900CE5
:1055B0000E94881281EB94E00E94430F0E94DD0F4D
:1055C00056CF84E49FE01830B9F248F48FE59FE0AD
:1055D000163091F283E59FE0173071F2DACE85E361
:1055E0009FE0193049F282E19FE01F3F29F2D1CEBE
:1055F00010E0CFCE163089F619821A8280ED90E144
:105600000E948812CE0101960E94930EC4CF0330EF
:1056100008F0A0C08BE990E10E94F9096AE070E00F
:1056200084E00E94761386E990E10E948812AE0120
:105630004A5D5F4FBE016D5E7F4F84E00E94900F18
:10564000182F8093A1028FE790E11111E3C08DE044
:1056500090E10E94F9098BE090E10E94881260E1DC
:10566000CE0143960E9411140E9484120E9484125B
:105670008B8990E0B0E0A0E0782F6627552744277B
:105680009C89892F90E0B0E0A0E0DC019927882771
:10569000840F951FA61FB71F2E89820F911DA11D74
:1056A000B11D4D8950E070E060E0762F652F542FDA
:1056B0004427840F951FA61FB71F89839A83AB8346
:1056C000BC832F892D83288D2E83398D3F833A8D7E
:1056D00038873B8D39878734934BA743B34109F013
:1056E000C4C18091D3039091D403009709F0A0C066
:1056F0008E81882309F4ADC099E0FE013196A2EABB
:10570000B2E001900D929A95E1F70E947D133092DC
:10571000D1032092D0038091A7020E947D13809133
:10572000A2029091A302A091A402B091A502873495
:10573000934BA743B34109F0A2C18091A7028823EC
:1057400009F438CF8091A802882309F433CF0E944E
:10575000ED2130CF163009F07ACF82E18DA3AE0172
:105760004B5D5F4FBE016F5F7F4F88E00E94900FDF
:10577000182F8093A10286E690E111114BC084E0BE
:10578000FE013196DE01539601900D928A95E1F764
:10579000AE014B5D5F4FBE016F5F7F4F89E00E949E
:1057A000900F182F8093A1028DE490E1111132C067
:1057B00084E0FE013196DE01579601900D928A95A4
:1057C000E1F7AE014B5D5F4FBE016F5F7F4F8AE037
:1057D0000E94900F182F8093A10284E390E1111191
:1057E00019C084E0FE013196DE015B9601900D92B6
:1057F0008A95E1F7AE014B5D5F4FBE016F5F7F4F52
:105800008BE00E94900F182F8093A102882331F023
:105810008BE190E10E94F909812FC8CE84E0FE015E
:105820003196DE015F9601900D928A95E1F70FCFD8
:10583000222309F45DCFDC01ED91FC910088F18910
:10584000E02DBE016F5F7F4F0995882309F450CF8B
:10585000B1CE8091D3039091D4030097B1F1DC01D4
:10586000ED91FC910288F389E02D09959F818913C0
:105870002CC01092D4031092D3038AEF9FE00E94B1
:1058800088120E946712882359F085E091E00E94F7
:10589000541860ED77E080E090E00E94150B8ACE0E
:1058A0000E945D1864E670E080E090E00E94150BB5
:1058B00085E091E00E94541864E670E080E090E09A
:1058C0000E94150B0E945818E4CF8F8181508E3FA3
:1058D00040F40E9467128823B9F084E091E00E94AE
:1058E00054188F81833009F48BC018F5813069F129
:1058F00008F057C081EB94E00E94430F0E94DD0F37
:1059000081E00E945A1DC5CF0E945D1864E670E0D8
:1059100080E090E00E94150B84E091E00E94541812
:1059200064E670E080E090E00E94150B0E94581839
:10593000D8CF853009F47EC008F46FC0863009F4F2
:1059400089C08F3F09F0A5CFD5CF86E090E00E94B7
:10595000B12E8C015884FC019182808212821382C4
:105960001482158284EF9EE00E948812852D0E9489
:105970007D130E94470B6B017C01252D30E0A0E6D2
:10598000BAEE0E94742E6C0D7D1D8E1D9F1DF801B8
:1059900062837383848395831093D4030093D3032A
:1059A00078CF88E090E00E94B12E8C018EE691E0E5
:1059B000D8018D939C93F801128213821482158270
:1059C00085E086838EE1878382EE9EE00E948812C6
:1059D0000E946712882381F068EE73E080E090E017
:1059E0000E94150B8CE291E00E94541864EF71E064
:1059F00080E090E00E94150BC8010E940A21CCCFE4
:105A000082E090E00E94B12E8C01DC016D927C92CC
:105A100085ED9EE00E948812BFCF82E090E00E9458
:105A2000B12E8C012EE331E0FC013183208383EC25
:105A30009EE0F0CF8CE090E00E94B12E8C01E6E277
:105A4000F1E0DC011196FC93EE931B961C928CEA1C
:105A50009EE0E0CF82E090E00E94B12E8C01DC015C
:105A6000AD92BC9281E99EE0D5CF89E0FE013196EE
:105A7000A2EAB2E001900D928A95E1F750CE109221
:105A8000D2038CE291E00E9462180E9404190E94E5
:105A9000201D90CD8BEF91E09093CB048093CA04AE
:105AA00080919D0290919E028A5C944071F4E091F5
:105AB000DD04F091DE0490818091DF0480958923DC
:105AC000808310929E0210929D0208958F929F9261
:105AD000AF92BF92CF92DF92EF92FF92CF93DF937C
